:020000040800F2
:10000000001A0020CD0100088D0400082304000818
:100010008904000887020008D508000800000000D5
:10002000000000000000000000000000A50500081E
:10003000FD020008000000008F040008910600087F
:10004000E7010008E7010008E7010008E7010008F0
:10005000E7010008E7010008E7010008E7010008E0
:10006000E7010008E7010008E7010008E7010008D0
:10007000E7010008E7010008E7010008E7010008C0
:10008000E7010008E7010008E7010008E7010008B0
:10009000E7010008E7010008E7010008E7010008A0
:1000A000E7010008E7010008E7010008E701000890
:1000B000E7010008E7010008E7010008E701000880
:1000C000E7010008E7010008E7010008E701000870
:1000D000E7010008E7010008E7010008E701000860
:1000E000E7010008E7010008E7010008E701000850
:1000F000E7010008E7010008E7010008E701000840
:10010000E7010008E7010008E7010008E70100082F
:10011000E7010008E7010008E7010008E70100081F
:10012000E7010008E7010008E7010008E70100080F
:1001300000F002F800F03AF80AA090E8000C8244BF
:100140008344AAF10107DA4501D100F02FF8AFF29C
:10015000090EBAE80F0013F0010F18BFFB1A43F0A5
:1001600001031847C4070000E4070000103A24BF49
:1001700078C878C1FAD8520724BF30C830C144BF0C
:1001800004680C607047000000230024002500264E
:10019000103A28BF78C1FBD8520728BF30C148BFEA
:1001A0000B6070471FB51FBD10B510BD00F031F8D2
:1001B0001146FFF7F7FF00F08FFB00F04FF803B494
:1001C000FFF7F2FF03BC00F057F800000948804732
:1001D00009480047FEE7FEE7FEE7FEE7FEE7FEE729
:1001E000FEE7FEE7FEE7FEE704480549054A064B41
:1001F0007047000095060008310100080014002037
:10020000001A0020001600200016002070477047DA
:100210007047754600F02CF8AE4605006946534617
:1002200020F00700854618B020B5FFF7DDFFBDE8D8
:1002300020404FF000064FF000074FF000084FF04D
:10024000000B21F00701AC46ACE8C009ACE8C009DE
:10025000ACE8C009ACE8C0098D46704710B504464B
:10026000AFF300802046BDE81040FFF7A8BF0000B4
:10027000004870479C13002001491820ABBEFEE7E0
:1002800026000200704700BFFEE7000000F080512A
:1002900011B10349086001E002494860704700005D
:1002A000040402400000024021B1026842F0010251
:1002B000026004E002684FF6FE731A400260704765
:1002C00010B50022026847F6F0739A430C6A8B68F7
:1002D00023430C6923434C6923438C692343CC6932
:1002E00023434C6A23438C6A23431A430260CB683E
:1002F00043600B6883604B68C36010BD704700E0CB
:10030000401E0028FCD170472DE9F041024600252F
:100310000026002000230024002791F803C00CF0E1
:100320000F0591F803C00CF0100CBCF1000F03D0C6
:1003300091F802C04CEA050591F800C0BCF1000F2D
:1003400031D0146800202BE04FF0010C0CFA00F3C0
:10035000B1F800C00CEA03069E4220D183004FF0A2
:100360000F0C0CFA03F7BC4305FA03FC4CEA040437
:1003700091F803C0BCF1280F06D14FF0010C0CFA24
:1003800000FCC2F814C00AE091F803C0BCF1480FA9
:1003900005D14FF0010C0CFA00FCC2F810C0401C53
:1003A0000828D1D31460B1F800C0BCF1FF0F34DDD0
:1003B000546800202EE000F1080C4FF0010808FA04
:1003C0000CF3B1F800C00CEA03069E4221D1830071
:1003D0004FF00F0C0CFA03F7BC4305FA03FC4CEA90
:1003E000040491F803C0BCF1280F05D100F1080CFA
:1003F00008FA0CF8C2F8148091F803C0BCF1480F59
:1004000007D100F1080C4FF0010808FA0CF8C2F807
:100410001080401C0828CED35460BDE8F0810161F3
:10042000704700BFFEE7000008B50121082000F07A
:100430003FF80120ADF8000010208DF803000320E4
:100440008DF8020069460F48FFF75EFF0220ADF805
:10045000000069460B48FFF757FF2020ADF8000069
:1004600069460848FFF750FF01210648FFF7D7FF0C
:1004700020210448FFF7D3FF02210248FFF7CFFFF6
:1004800008BD0000000C014000BFFEE77047704748
:1004900029B1064A52690243044B5A6104E0034AF7
:1004A00052698243014B5A617047000000100240BC
:1004B00029B1064A92690243044B9A6104E0034A57
:1004C00092698243014B9A6170470000001002401C
:1004D00030B500210022002400232D4D6D6805F069
:1004E0000C0121B1042905D0082923D105E0294DAB
:1004F000056022E0274D05601FE0254D6D6805F47D
:100500007012234D6D6805F48034022505EB92428C
:100510001CB9214D554305600BE01D4D6D6805F478
:1005200000351DB11C4D5543056002E0194D554382
:10053000056002E0174D056000BF00BF144D6D68F7
:1005400005F0F0010909154D6B5C0568DD4045605B
:100550000F4D6D6805F4E061090A104D6B5C45684C
:10056000DD4085600A4D6D6805F46051C90A0B4D88
:100570006B5C4568DD40C560054D6D6805F4404124
:10058000890B074D6B5CC568B5FBF3F5056130BDA4
:100590000010024000127A0000093D000000002017
:1005A00010000020704710B500F002F810BD0000E8
:1005B0000CB50020019000903348006840F4803072
:1005C0003149086000BF3048006800F400300090F6
:1005D0000198401C0190009818B90198B0F5A06FDF
:1005E000F1D12948006800F4003010B101200090DA
:1005F00001E0002000900098012843D123480068C2
:1006000040F01000214908600846006820F003000F
:1006100008600846006840F0020008601A48406818
:10062000194948600846406848600846406840F4F8
:10063000806048600846406820F47C1048600846A6
:10064000406840F4E81048600846006840F0807058
:10065000086000BF0C48006800F000700028F9D066
:100660000948406820F00300074948600846406890
:1006700040F00200486000BF0348406800F00C00F2
:100680000828F9D10CBD00000010024000200240F3
:100690007047000010B51348006840F00100114990
:1006A000086008464068104908400E4948600846FE
:1006B00000680E4908400B4908600846006820F4AD
:1006C000802008600846406820F4FE0048604FF42F
:1006D0001F008860FFF767FF4FF000600449086063
:1006E00010BD0000001002400000FFF8FFFFF6FE02
:1006F00008ED00E021B1828942F40052828104E0D9
:1007000082894DF6FF731A408281704700B585B02B
:1007100001210420FFF7CCFE01218803FFF7C8FE6A
:100720004FF40070ADF8100018208DF8130003206E
:100730008DF8120004A91348FFF7E6FD4FF480601E
:10074000ADF8100004208DF8130004A90D48FFF740
:10075000DBFD4FF4E13000900020ADF80400ADF86F
:100760000600ADF80800ADF80C000C20ADF80A004A
:100770006946054800F014F801210348FFF7BAFF65
:1007800005B000BD00080140003801401AB1838A5D
:100790000B43838202E0838A8B438382704700008D
:1007A0002DE9F04786B005460E460024A24600BF5C
:1007B000A1460027B08900B100BF2F462C8A4CF615
:1007C000FF700440F08804432C82AC894EF6F3108D
:1007D0000440B08831890843718908430443AC81DF
:1007E000AC8A4FF6FF400440B0890443AC8201A8B4
:1007F000FFF76EFE1F48874202D1DDF810A001E02E
:10080000DDF80CA0A88900F4004040B10AEBCA0052
:1008100000EB0A1031684900B0FBF1F807E00AEB81
:10082000CA0000EB0A1031688900B0FBF1F86420BF
:10083000B8FBF0F004012009642101FB1089A889AC
:1008400000F4004040B1322000EBC900B0FBF1F0F1
:1008500000F00700044308E0322000EB0910642197
:10086000B0FBF1F000F00F0004432C8106B0BDE8AE
:10087000F08700000038014000B58BB00121084628
:10088000FFF706FE104800901048019010200290DB
:1008900041F2883003900020049006900590079064
:1008A00008904FF40050099000200A9069460848CB
:1008B000FFF706FD4FF40050FFF7E8FC0121044864
:1008C000FFF7F2FC0BB000BD04380140140000201B
:1008D0004400024000BFFEE7FFF7A6FDFFF716FF4A
:1008E000002404E050200D490855601C84B241F2F8
:1008F00088308442F6DBFFF7BFFF012280210848E1
:10090000FFF744FF09E00748006880F02000054930
:1009100008606FF07F40FFF7F2FCF4E7140000205E
:10092000003801400C0C014048090008000000207C
:10093000140000006C0100085C090008140000208D
:10094000EC19000088010008000000000102030407
:0C0950000102030406070809020406085F
:0400000508000131BD
:00000001FF
